:100000000C945D000C9485000C9485000C94850084
:100010000C9485000C9485000C9485000C9485004C
:100020000C9485000C9485000C9485000C942B0492
:100030000C9485000C9485000C9485000C9485002C
:100040000C9489030C9485000C94F9030C94D3034D
:100050000C9485000C9485000C9485000C9485000C
:100060000C9485000C94850000000008000201003B
:100070000003040700000000000000000000000072
:10008000250028002B0000000000240027002A0083
:10009000040404040404040402020202020203032E
:1000A0000303030301020408102040800102040836
:1000B0001020010204081020EC0411241FBECFEF11
:1000C000D8E0DEBFCDBF11E0A0E0B1E0EAEDF4E1A1
:1000D00002C005900D92A836B107D9F722E0A8E634
:1000E000B1E001C01D92AB33B207E1F710E0CDE5FE
:1000F000D0E004C02197FE010E944B08CC35D10707
:10010000C9F70E944A050C946B0A0C940000CF9228
:10011000DF92EF92FF92DC01A03282E0B8070CF090
:100120003EC0B7FD06C0A53BB1052CF0A4EBB0E086
:1001300002C0A0E0B0E08091350228E830E069011B
:10014000C81AD10887FDD394CC0CDD1CCC0CDD1C67
:100150000D2C000CEE08FF088091360228E532E0F5
:10016000281B310987FD3395220F331F220F331FC0
:10017000A901330F660B770B9A01AB012C193D09CE
:100180004E095F090E94CF0724EB30E040E050E0C9
:100190000E94A507C20ED31EE41EF51ED601909143
:1001A00034029C3098F58091350248E850E0481BB5
:1001B000510987FD5395440F551F440F551FA41730
:1001C000B5078CF08091360228E532E0281B310912
:1001D00087FD3395220F331F220F331FAD012A17DE
:1001E0003B070CF4A90142505109440F551F2FB78A
:1001F000F894892F90E0FC01EE0FFF1F8E0F9F1FD8
:10020000FC01E15FFD4F528341832FBFFF90EF90D0
:10021000DF90CF9008952FB7F89480916E01909160
:100220006F01A0917001B09171012FBF80937A018D
:1002300090937B01A0937C01B0937D01E0917201CA
:10024000F09173010284F385E02D82E791E0099536
:1002500097FF26C02FB7F89480916E0190916F019F
:10026000A0917001B09171012FBF40917A0150911E
:100270007B0160917C0170917D01841B950BA60B25
:10028000B70B4091760150917701609178017091A0
:10029000790184179507A607B70780F28FEF9FEFC4
:1002A0000895CF92DF92EF92FF920F931F93CF9317
:1002B000DF936C017A018B01C0E0D0E0CE15DF0541
:1002C00089F0D8016D918D01D601ED91FC910190DD
:1002D000F081E02DC6010995892B11F47E0102C041
:1002E0002196ECCFC701DF91CF911F910F91FF9025
:1002F000EF90DF90CF900895089580E090E008950A
:10030000FC01538D448D252F30E0842F90E0821B1B
:10031000930B541710F0CF96089501970895FC01A0
:10032000918D828D981761F0828DDF01A80FB11D2C
:100330005D968C91928D9F5F9F73928F90E0089550
:100340008FEF9FEF0895FC01918D828D981731F00A
:10035000828DE80FF11D858D90E008958FEF9FEF5E
:100360000895FC01918D228D892F90E0805C9F4F34
:10037000821B91098F739927089582E791E00E946B
:10038000B10121E0892B09F420E0822F0895FC01BE
:10039000848DDF01A80FB11DA35ABF4F2C91848D0E
:1003A00090E001968F739927848FA689B7892C9343
:1003B000A089B1898C9180648C93938D848D9813DE
:1003C00006C00288F389E02D80818F7D80830895A7
:1003D000EF92FF920F931F93CF93DF93EC0181E095
:1003E000888F9B8D8C8D981305C0E889F989808151
:1003F00085FD24C0F62E0B8D10E00F5F1F4F0F738D
:100400001127E02E8C8DE8120CC00FB607FCFACF36
:10041000E889F989808185FFF5CFCE010E94C70167
:10042000F1CF8B8DFE01E80FF11DE35AFF4FF082F3
:100430000B8FEA89FB898081806207C0EE89FF8982
:100440006083E889F98980818064808381E090E01D
:10045000DF91CF911F910F91FF90EF900895CF936F
:10046000DF93EC01888D8823C9F0EA89FB898081BC
:1004700085FD05C0A889B9898C9186FD0FC00FB68E
:1004800007FCF5CF808185FFF2CFA889B9898C91CF
:1004900085FFEDCFCE010E94C701E7CFDF91CF915D
:1004A000089580E090E0892B29F00E94BD01811120
:1004B0000C940000089590E0FC01E859FF4F34913E
:1004C000FC01EC55FF4F2491FC01E057FF4FE491F4
:1004D000EE2309F43BC0332339F1333091F038F483
:1004E0003130A9F0323001F584B58F7D12C037303C
:1004F00091F03830A1F03430B9F4809180008F7DD4
:1005000003C0809180008F77809380000DC084B5F8
:100510008F7784BD09C08091B0008F7703C0809130
:10052000B0008F7D8093B000F0E0EE0FFF1FE45825
:10053000FF4FA591B4918FB7F894EC91611103C06E
:1005400020952E2301C02E2B2C938FBF089500974A
:1005500069F0FC0101900020E9F73197AF01481BD9
:10056000590BBC0182E791E00C94510180E090E0CE
:100570000895CF93DF93EC0188819981009711F062
:100580000E94E608198218821D821C821B821A8230
:10059000DF91CF9108950E94480A0F931F93CF9344
:1005A000DF93EC0188819981009729F02A813B81B2
:1005B0002617370788F48B016F5F7F4F0E947E09F3
:1005C000009761F0998388831B830A832C813D8186
:1005D000232B11F4FC01108281E001C080E0DF9147
:1005E000CF911F910F910895EF92FF920F931F9358
:1005F000CF93DF93FC01248135816115710511F4DE
:1006000080E019C041155105A9F07B01EC018A0178
:10061000020F131FB8010E94CD02882389F328819D
:1006200039818C819D81B701820F931F0E94560AE8
:100630001D830C8381E0DF91CF911F910F91FF907B
:10064000EF900895EF92FF920F931F93CF93DF9354
:10065000EC01198218821B821A821D821C8261158C
:10066000710521F18B01FB0101900020E9F7319721
:100670007F01E61AF70AB7010E94CD02811109C075
:10068000CE01DF91CF911F910F91FF90EF900C94CD
:10069000B902FD82EC82B80188819981DF91CF9106
:1006A0001F910F91FF90EF900C94560ADF91CF911C
:1006B0001F910F91FF90EF900895EF92FF920F938B
:1006C0001F93CF93DF938C017B016115710569F056
:1006D000FB0101900020E9F73197EF01C61BD70B12
:1006E000BE010E94CD02811104C0C8010E94B9025E
:1006F00008C0F801D583C483B701808191810E942D
:10070000560AC801DF91CF911F910F91FF90EF9092
:1007100008951F920F920FB60F9211242F933F93BB
:100720008F939F93AF93BF9380916E0190916F01D0
:10073000A0917001B091710130916D0123E0230F00
:100740002D3720F40196A11DB11D05C026E8230F09
:100750000296A11DB11D20936D0180936E019093AF
:100760006F01A0937001B093710180916901909124
:100770006A01A0916B01B0916C010196A11DB11DA0
:100780008093690190936A01A0936B01B0936C010F
:10079000BF91AF919F918F913F912F910F900FBE7D
:1007A0000F901F9018951F920F920FB60F92112461
:1007B0002F933F934F935F936F937F938F939F9369
:1007C000AF93BF93EF93FF9382E791E00E94C7013D
:1007D000FF91EF91BF91AF919F918F917F916F9119
:1007E0005F914F913F912F910F900FBE0F901F90EF
:1007F00018951F920F920FB60F9211242F938F937B
:100800009F93EF93FF93E0918201F09183018081A8
:10081000E0918801F091890182FD12C09081809160
:100820008B018F5F8F7320918C01821751F0E091C3
:100830008B01F0E0EE58FE4F958F80938B0101C045
:100840008081FF91EF919F918F912F910F900FBE1B
:100850000F901F9018951F920F920FB60F921124B0
:100860002F933F934F935F936F937F938F939F93B8
:10087000AF93BF93EF93FF938091680187FF05C00B
:1008800010928500109284001BC020916801022EF6
:10089000000C330B8091330290E02817390784F461
:1008A00080916801082E000C990BFC01EE0FFF1FD0
:1008B0008E0F9F1FFC01E15FFD4F808186FD15C0FB
:1008C000809168018F5F8093680120916801022EFA
:1008D000000C330B8091330290E028173907C4F4E1
:1008E000809168018C3064F113C080916801082EFA
:1008F000000C990BFC01EE0FFF1F8E0F9F1FFC01D8
:10090000E15FFD4F808160E08F730E945B02D8CF72
:100910008091840090918500049680349C4918F45D
:1009200080E49CE905C08091840090918500049644
:1009300090938900809388008FEF809368013BC07B
:10094000209184003091850080916801082E000C70
:10095000990BFC01EE0FFF1F8E0F9F1FFC01E15F43
:10096000FD4F81819281820F931F90938900809324
:10097000880080916801082E000C990BFC01EE0F95
:10098000FF1F8E0F9F1FFC01E15FFD4F808186FFDF
:1009900012C080916801082E000C990BFC01EE0F2B
:1009A000FF1F8E0F9F1FFC01E15FFD4F808161E003
:1009B0008F730E945B02FF91EF91BF91AF919F9166
:1009C0008F917F916F915F914F913F912F910F90F8
:1009D0000FBE0F901F901895109275011092740120
:1009E00088EE93E0A0E0B0E08093760190937701E9
:1009F000A0937801B09379018AE091E0909373011C
:100A00008093720185EC90E090937F0180937E014A
:100A100084EC90E0909381018093800180EC90E0E1
:100A2000909383018093820181EC90E09093850103
:100A30008093840182EC90E09093870180938601FB
:100A400086EC90E0909389018093880110928B014D
:100A500010928C0110928D0110928E0180913302C0
:100A60008C30A0F491E0980F90933302809334027D
:100A700090E0FC01EE0FFF1F8E0F9F1FFC01E15F56
:100A8000FD4F88EB9BE09283818308958FEF8093E5
:100A900034020895CF93DF93CDB7DEB76E970FB6CC
:100AA000F894DEBF0FBECDBF789484B5826084BD5C
:100AB00084B5816084BD85B5826085BD85B5816062
:100AC00085BD80916E00816080936E0010928100E0
:100AD000809181008260809381008091810081609B
:100AE000809381008091800081608093800080915C
:100AF000B10084608093B1008091B00081608093E8
:100B0000B00080917A00846080937A0080917A00AE
:100B1000826080937A0080917A00816080937A006D
:100B200080917A00806880937A001092C100809151
:100B300034028C3008F068C0ECEAF0E02491E8E977
:100B4000F0E08491882399F090E0880F991FFC01D0
:100B5000EA57FF4FA591B491FC01E458FF4F8591EE
:100B600094918FB7F894EC91E22BEC938FBF809126
:100B70003402E82FF0E09F01220F331FE20FF31F32
:100B8000E15FFD4F9081907C9860908310923502D8
:100B9000109236026CE00E943F089CE0899FB001F1
:100BA000112440E050E09A01260F371FF901EE0FA3
:100BB000FF1F2E0F3F1FF901E15FFD4F908196FD52
:100BC00016C04F5F5F4F4C30510569F781110FC060
:100BD0001092800082E08093810010928500109234
:100BE0008400B19A80916F00826080936F00E091E1
:100BF0003402F0E0CF01880F991FE80FF91FE15F81
:100C0000FD4F808180648083E0918201F0918301B7
:100C100082E08083E0917E01F0917F011082E0917B
:100C20008001F09181018FEC808310928A01E09124
:100C30008601F091870186E08083E0918401F09144
:100C40008501808180618083E0918401F09185013C
:100C5000808188608083E0918401F09185018081AA
:100C600080688083E0918401F091850180818F7D8F
:100C7000808388E191E00E94A70285E391E00E94D1
:100C8000A70280E090E00E94870086E391E0E82ED2
:100C9000880FFF0867E371E0CE0149960E942203A6
:100CA0000E940B0197FD0FC08E159F0561F089838F
:100CB0001A8241E050E0BE016F5F7F4FCE0149963E
:100CC0000E94F402EDCF4D8D5E8D4115510509F462
:100CD000BFC0698D7A8D82E791E00E94510188E35F
:100CE00091E00E94A7026DE371E0CE0101960E949F
:100CF00022034D815E818D8D9E8DC980DA8084179F
:100D0000950768F0898D9A8D009749F0C114D10438
:100D100031F0B6010E945D0A11E0892B09F010E064
:100D2000C6010E94E608111109C083E491E00E9407
:100D3000A70285E391E00E94A7028AC00D8D1E8D57
:100D40000530110520F4680105E010E003C085E0DE
:100D5000C82ED12C67E371E0CE0101960E942203D8
:100D60008D8D9E8DC816D906C0F48017910708F4A2
:100D70008C01E98DFA8DE00FF11FB0801082698D32
:100D80007A8D6C0D7D1DCE0101960E945D03898DCB
:100D90009A8DFC01E00FF11FB08209811A810115C3
:100DA000110531F0C8010E9434074B015C0103C0FA
:100DB000812C912C54016401C8010E94E6081C8A10
:100DC0001B8A1E8A1D8A188E1F8A4AE0BE016F5F29
:100DD0007F4FC4010E945B07BE016F5F7F4FCE0152
:100DE00043960E945D0363E571E0CE0101960E9487
:100DF00022034F89588D6B897C89CE0101960E9410
:100E0000F402811104C0CE0101960E94B90248E0AB
:100E100050E06EE571E0CE0101960E94F402882355
:100E2000F1F04D815E8169817A8182E791E00E94D3
:100E3000510185E391E00E94A70289819A810E9475
:100E4000E6088B899C890E94E608C6010E948700FB
:100E5000898D9A8D0E94E6080E9451021BCFCE0117
:100E600001960E94B902DDCF1F93FC0199278827C4
:100E7000BC01E89411911032E9F3193010F01E30E2
:100E8000C8F31B3251F01D3249F4689406C00E9429
:100E90006607610F711D811D911D119110531A304C
:100EA000B0F33EF490958095709561957F4F8F4F8C
:100EB0009F4F1F910895BB274A3031F4992322F4A4
:100EC000BDE2909581959F4F0C947C07592F482F38
:100ED000372F262F660F771F881F991F660F771FE2
:100EE000881F991F620F731F841F951F660F771F3E
:100EF000881F991F0895BB27FB015527AA27880F34
:100F0000991FAA1FA41710F0A41B83955051B9F77D
:100F1000A05DAA3308F0A95DA193009779F7B111FC
:100F2000B1931192CB010C949507DC01FC01672F62
:100F300071917723E1F7329704C07C916D937083B0
:100F40006291AE17BF07C8F30895052E97FB1EF4F4
:100F500000940E94BC0757FD07D00E940E0807FCB2
:100F600003D04EF40C94BC075095409530952195D4
:100F70003F4F4F4F5F4F08959095809570956195C5
:100F80007F4F8F4F9F4F08950E943008A59F900D6F
:100F9000B49F900DA49F800D911D11240895B7FF5B
:100FA0000C94C4070E94C407821B930B08952F92D0
:100FB0003F924F925F926F927F928F929F92AF92E9
:100FC000BF92CF92DF92EF92FF920F931F93CF9336
:100FD000DF93CDB7DEB7CA1BDB0B0FB6F894DEBFCD
:100FE0000FBECDBF09942A88398848885F846E84F3
:100FF0007D848C849B84AA84B984C884DF80EE803D
:10100000FD800C811B81AA81B981CE0FD11D0FB645
:10101000F894DEBF0FBECDBFED010895A1E21A2EF8
:10102000AA1BBB1BFD010DC0AA1FBB1FEE1FFF1F8C
:10103000A217B307E407F50720F0A21BB30BE40BDC
:10104000F50B661F771F881F991F1A9469F7609523
:101050007095809590959B01AC01BD01CF010895DD
:10106000A29FB001B39FC001A39F700D811D1124E9
:10107000911DB29F700D811D1124911D0895991B22
:1010800079E004C0991F961708F0961B881F7A957F
:10109000C9F780950895EE0FFF1F0590F491E02D9C
:1010A0000994CF93DF938230910510F482E090E0B1
:1010B000E0913902F0913A0220E030E0C0E0D0E067
:1010C000309711F14081518148175907C0F04817F6
:1010D000590761F482819381209719F09B838A8359
:1010E0002BC090933A028093390226C02115310516
:1010F00019F04217530718F49A01BE01DF01EF01FE
:101100000280F381E02DDCCF2115310509F1281B88
:10111000390B2430310590F412968D919C911397E0
:101120006115710521F0FB019383828304C09093C4
:101130003A0280933902FD01329644C0FD01E20F6C
:10114000F31F81939193225031092D933C933AC020
:101150002091370230913802232B41F42091020173
:10116000309103013093380220933702209100011F
:10117000309101012115310541F42DB73EB7409161
:10118000040150910501241B350BE0913702F091C9
:101190003802E217F307A0F42E1B3F0B281739077C
:1011A00078F0AC014E5F5F4F2417350748F04E0FC3
:1011B0005F1F50933802409337028193919302C08E
:1011C000E0E0F0E0CF01DF91CF9108950F931F93FE
:1011D000CF93DF93009709F48CC0FC013297138200
:1011E00012820091390210913A020115110581F421
:1011F00020813181820F931F209137023091380274
:101200002817390779F5F0933802E093370271C057
:10121000D80140E050E0AE17BF0750F412962D9170
:101220003C911397AD012115310509F1D901F3CF97
:101230009D01DA013383228360817181860F971FBC
:101240008217930769F4EC0128813981260F371F33
:101250002E5F3F4F318320838A819B8193838283DA
:10126000452B29F4F0933A02E093390242C01396D9
:10127000FC93EE931297ED01499159919E01240F31
:10128000351FE217F30771F480819181840F951F58
:10129000029611969C938E938281938113969C93D0
:1012A0008E931297E0E0F0E0D80112968D919C9118
:1012B0001397009719F0F8018C01F6CF8D919C914E
:1012C00098012E5F3F4F820F931F2091370230917C
:1012D00038022817390769F4309729F410923A0236
:1012E0001092390202C013821282109338020093C6
:1012F0003702DF91CF911F910F910895A0E0B0E0E8
:10130000E4E8F9E00C94DB07EC01009721F4CB0151
:101310000E945108B8C0FC01E60FF71F9C01225043
:101320003109E217F30708F4ACC0D9010D911C9103
:10133000119706171707B0F00530110508F49FC084
:10134000C80104978617970708F499C0025011093D
:10135000061B170B019311936D937C93CF010E9491
:10136000E6088DC05B01A01AB10A4C01800E911EE7
:10137000A0913902B0913A0240E050E0E12CF12C0A
:10138000109709F44AC0A815B905D1F56D907C9065
:101390001197630182E0C80ED11CCA14DB0480F1EE
:1013A000A3014A195B096A0182E0C80ED11C12969A
:1013B000BC9012971396AC91B5E0CB16D10440F0D7
:1013C000B282A38351834083D9016D937C930AC079
:1013D0000E5F1F4FC301800F911FF901918380831E
:1013E000EB2DFA2FE114F10431F0D7011396FC93A1
:1013F000EE93129744C0F0933A02E09339023FC053
:101400008D919C9111974817590708F4AC017D0103
:1014100012960D90BC91A02DB3CF80913702909180
:10142000380288159905E1F446175707C8F48091EA
:10143000000190910101009741F48DB79EB7409152
:10144000040150910501841B950BE817F907C8F4B6
:10145000F0933802E0933702F901718360830FC083
:10146000CB010E9451087C01009759F0A801BE01F0
:101470000E944D0ACE010E94E608C70104C0CE01B9
:1014800002C080E090E0CDB7DEB7EEE00C94F70745
:1014900081E090E0F8940C946B0AFB01DC0102C03F
:1014A00001900D9241505040D8F70895FB01DC01A6
:1014B00001900D920020E1F70895FB01DC014150FD
:1014C000504030F08D910190801919F40020B9F747
:0A14D000881B990B0895F894FFCFD4
:1014DA0000003B02800000000000E8015101800189
:1014EA002F02B1018F01A301414E4E4F554E434584
:1014FA0020736572766F5F776974685F6D65737361
:10150A0061676535000D0A00202D3E20006D6F765B
:10151A006520006E6F7420696D706C656D656E7400
:10152A006564006D6F76696E6720746F20002064B1
:08153A0065677265657300002E
:107E0000112484B714BE81FFF0D085E080938100F7
:107E100082E08093C00088E18093C10086E0809377
:107E2000C20080E18093C4008EE0C9D0259A86E02C
:107E300020E33CEF91E0309385002093840096BBD3
:107E4000B09BFECF1D9AA8958150A9F7CC24DD24C4
:107E500088248394B5E0AB2EA1E19A2EF3E0BF2EE7
:107E6000A2D0813461F49FD0082FAFD0023811F036
:107E7000013811F484E001C083E08DD089C08234E0
:107E800011F484E103C0853419F485E0A6D080C0E4
:107E9000853579F488D0E82EFF2485D0082F10E0AE
:107EA000102F00270E291F29000F111F8ED06801E7
:107EB0006FC0863521F484E090D080E0DECF843638
:107EC00009F040C070D06FD0082F6DD080E0C81688
:107ED00080E7D80618F4F601B7BEE895C0E0D1E017
:107EE00062D089930C17E1F7F0E0CF16F0E7DF06D8
:107EF00018F0F601B7BEE89568D007B600FCFDCFD4
:107F0000A601A0E0B1E02C9130E011968C91119780
:107F100090E0982F8827822B932B1296FA010C0160
:107F200087BEE89511244E5F5F4FF1E0A038BF0790
:107F300051F7F601A7BEE89507B600FCFDCF97BE46
:107F4000E89526C08437B1F42ED02DD0F82E2BD052
:107F50003CD0F601EF2C8F010F5F1F4F84911BD097
:107F6000EA94F801C1F70894C11CD11CFA94CF0C13
:107F7000D11C0EC0853739F428D08EE10CD085E9AC
:107F80000AD08FE07ACF813511F488E018D01DD067
:107F900080E101D065CF982F8091C00085FFFCCF94
:107FA0009093C60008958091C00087FFFCCF809118
:107FB000C00084FD01C0A8958091C6000895E0E648
:107FC000F0E098E1908380830895EDDF803219F02E
:107FD00088E0F5DFFFCF84E1DECF1F93182FE3DFCA
:107FE0001150E9F7F2DF1F91089580E0E8DFEE27F6
:047FF000FF270994CA
:027FFE00040479
:0400000300007E007B
:00000001FF
