:100000000C945D000C9485000C9485000C94850084
:100010000C9485000C9485000C9485000C9485004C
:100020000C9485000C9485000C9485000C9462035C
:100030000C9485000C9485000C9485000C9485002C
:100040000C9418030C9485000C94E6020C94C002E6
:100050000C9485000C9485000C9485000C9485000C
:100060000C9485000C94850000000008000201003B
:100070000003040700000000000000000000000072
:10008000250028002B0000000000240027002A0083
:10009000040404040404040402020202020203032E
:1000A0000303030301020408102040800102040836
:1000B0001020010204081020230411241FBECFEFDA
:1000C000D8E0DEBFCDBF11E0A0E0B1E0EEE0FCE0A3
:1000D00002C005900D92A432B107D9F721E0A4E245
:1000E000B1E001C01D92A33FB207E1F710E0CDE5FA
:1000F000D0E004C02197FE010E94FA05CC35D1075B
:10010000C9F70E9481040C9405060C940000CF925C
:10011000DF92EF92FF92DC01A03282E0B8070CF090
:100120003EC0B7FD06C0A53BB1052CF0A4EBB0E086
:1001300002C0A0E0B0E08091F10128E830E0690160
:10014000C81AD10887FDD394CC0CDD1CCC0CDD1C67
:100150000D2C000CEE08FF088091F20128E532E03A
:10016000281B310987FD3395220F331F220F331FC0
:10017000A901330F660B770B9A01AB012C193D09CE
:100180004E095F090E94B50524EB30E040E050E0E5
:100190000E948B05C20ED31EE41EF51ED60190915F
:1001A000F0019C3098F58091F10148E850E0481B3F
:1001B000510987FD5395440F551F440F551FA41730
:1001C000B5078CF08091F20128E532E0281B310957
:1001D00087FD3395220F331F220F331FAD012A17DE
:1001E0003B070CF4A90142505109440F551F2FB78A
:1001F000F894892F90E0FC01EE0FFF1F8E0F9F1FD8
:10020000FC01E553FE4F528341832FBFFF90EF90D7
:10021000DF90CF900895CF92DF92EF92FF920F93ED
:100220001F93CF93DF936C017A018B01C0E0D0E084
:10023000CE15DF0589F0D8016D918D01D601ED91C4
:10024000FC910190F081E02DC6010995892B11F4F4
:100250007E0102C02196ECCFC701DF91CF911F91A3
:100260000F91FF90EF90DF90CF900895089580E078
:1002700090E00895FC01538D448D252F30E0842FAC
:1002800090E0821B930B541710F0CF9608950197BE
:100290000895FC01918D828D981761F0828DDF01A8
:1002A000A80FB11D5D968C91928D9F5F9F73928F69
:1002B00090E008958FEF9FEF0895FC01918D828D5E
:1002C000981731F0828DE80FF11D858D90E008952B
:1002D0008FEF9FEF0895FC01918D228D892F90E083
:1002E000805C9F4F821B91098F73992708958EE23E
:1002F00091E00E946B0121E0892B09F420E0822F1C
:100300000895FC01848DDF01A80FB11DA35ABF4FD2
:100310002C91848D90E001968F739927848FA68904
:10032000B7892C93A089B1898C9180648C93938D2B
:10033000848D981306C00288F389E02D80818F7D1B
:1003400080830895EF92FF920F931F93CF93DF93D3
:10035000EC0181E0888F9B8D8C8D981305C0E88916
:10036000F989808185FD24C0F62E0B8D10E00F5F8A
:100370001F4F0F731127E02E8C8DE8120CC00FB6A3
:1003800007FCFACFE889F989808185FFF5CFCE0196
:100390000E948101F1CF8B8DFE01E80FF11DE35A20
:1003A000FF4FF0820B8FEA89FB898081806207C052
:1003B000EE89FF896083E889F98980818064808380
:1003C00081E090E0DF91CF911F910F91FF90EF902E
:1003D0000895CF93DF93EC01888D8823C9F0EA89D3
:1003E000FB89808185FD05C0A889B9898C9186FD2E
:1003F0000FC00FB607FCF5CF808185FFF2CFA8892B
:10040000B9898C9185FFEDCFCE010E948101E7CFA4
:10041000DF91CF91089580E090E0892B29F00E9430
:10042000770181110C940000089590E0FC01E859D7
:10043000FF4F3491FC01EC55FF4F2491FC01E05734
:10044000FF4FE491EE2309F43BC0332339F13330FD
:1004500091F038F43130A9F0323001F584B58F7D58
:1004600012C0373091F03830A1F03430B9F48091B7
:1004700080008F7D03C0809180008F778093800003
:100480000DC084B58F7784BD09C08091B0008F778F
:1004900003C08091B0008F7D8093B000F0E0EE0F3C
:1004A000FF1FE458FF4FA591B4918FB7F894EC91DA
:1004B000611103C020952E2301C02E2B2C938FBFDA
:1004C00008953FB7F89480912A0190912B01A09153
:1004D0002C01B0912D0126B5A89B05C02F3F19F026
:1004E0000196A11DB11D3FBFBA2FA92F982F8827B4
:1004F000820F911DA11DB11DBC01CD0142E0660F0F
:10050000771F881F991F4A95D1F708958F929F9260
:10051000AF92BF92CF92DF92EF92FF920E94610260
:100520004B015C0188EEC82E83E0D82EE12CF12C23
:100530000E946102DC01CB0188199909AA09BB0953
:10054000883E9340A105B10558F021E0C21AD108B8
:10055000E108F10888EE880E83E0981EA11CB11C0A
:10056000C114D104E104F10419F7FF90EF90DF907A
:10057000CF90BF90AF909F908F9008950E940006FB
:100580001F920F920FB60F9211242F933F934F9308
:100590005F936F937F938F939F93AF93BF93EF93EB
:1005A000FF938EE291E00E948101FF91EF91BF9154
:1005B000AF919F918F917F916F915F914F913F91FB
:1005C0002F910F900FBE0F901F9018951F920F92B2
:1005D0000FB60F9211242F938F939F93EF93FF9356
:1005E000E0913E01F0913F018081E0914401F09162
:1005F000450182FD12C09081809147018F5F8F730A
:1006000020914801821751F0E0914701F0E0E25D4E
:10061000FE4F958F8093470101C08081FF91EF913C
:100620009F918F912F910F900FBE0F901F90189553
:100630001F920F920FB60F9211242F933F938F9317
:100640009F93AF93BF938091260190912701A09132
:100650002801B09129013091250123E0230F2D3786
:1006600020F40196A11DB11D05C026E8230F0296B6
:10067000A11DB11D20932501809326019093270190
:10068000A0932801B093290180912A0190912B0118
:10069000A0912C01B0912D010196A11DB11D809357
:1006A0002A0190932B01A0932C01B0932D01BF91AF
:1006B000AF919F918F913F912F910F900FBE0F900F
:1006C0001F9018951F920F920FB60F9211242F931F
:1006D0003F934F935F936F937F938F939F93AF93CA
:1006E000BF93EF93FF938091240187FF05C0109281
:1006F0008500109284001BC020912401022E000C62
:10070000330B8091EF0190E02817390784F4809132
:100710002401082E000C990BFC01EE0FFF1F8E0F19
:100720009F1FFC01E553FE4F808186FD15C080911F
:1007300024018F5F8093240120912401022E000C5C
:10074000330B8091EF0190E028173907C4F48091B2
:1007500024018C3064F113C080912401082E000C18
:10076000990BFC01EE0FFF1F8E0F9F1FFC01E5533D
:10077000FE4F808160E08F730E941502D8CF809178
:10078000840090918500049680349C4918F480E49C
:100790009CE905C080918400909185000496909317
:1007A0008900809388008FEF809324013BC02091C3
:1007B00084003091850080912401082E000C990B53
:1007C000FC01EE0FFF1F8E0F9F1FFC01E553FE4F34
:1007D00081819281820F931F90938900809388007A
:1007E00080912401082E000C990BFC01EE0FFF1FD5
:1007F0008E0F9F1FFC01E553FE4F808186FF12C0C4
:1008000080912401082E000C990BFC01EE0FFF1FB4
:100810008E0F9F1FFC01E553FE4F808161E08F73B7
:100820000E941502FF91EF91BF91AF919F918F911F
:100830007F916F915F914F913F912F910F900FBEDC
:100840000F901F901895109231011092300188EE90
:1008500093E0A0E0B0E08093320190933301A09345
:100860003401B093350184E091E090932F0180939F
:100870002E0185EC90E090933B0180933A0184EC4B
:1008800090E090933D0180933C0180EC90E0909348
:100890003F0180933E0181EC90E090934101809371
:1008A000400182EC90E0909343018093420186ECFA
:1008B00090E090934501809344011092470110927B
:1008C00048011092490110924A018091EF018C3049
:1008D000A0F491E0980F9093EF018093F00190E0E5
:1008E000FC01EE0FFF1F8E0F9F1FFC01E553FE4F13
:1008F00088EB9BE09283818308958FEF8093F001D2
:100900000895789484B5826084BD84B5816084BD87
:1009100085B5826085BD85B5816085BD80916E009D
:10092000816080936E0010928100809181008260CE
:10093000809381008091810081608093810080910B
:1009400080008160809380008091B10084608093FA
:10095000B1008091B00081608093B00080917A00F6
:10096000846080937A0080917A00826080937A001C
:1009700080917A00816080937A0080917A0080680B
:1009800080937A001092C1008091F0018C3008F0C1
:1009900068C0ECEAF0E02491E8E9F0E08491882373
:1009A00099F090E0880F991FFC01EA57FF4FA5913D
:1009B000B491FC01E458FF4F859194918FB7F8945E
:1009C000EC91E22BEC938FBF8091F001E82FF0E0E7
:1009D0009F01220F331FE20FF31FE553FE4F90815B
:1009E000907C986090831092F1011092F2016CE07B
:1009F0000E94EE059CE0899FB001112440E050E088
:100A00009A01260F371FF901EE0FFF1F2E0F3F1F10
:100A1000F901E553FE4F908196FD16C04F5F5F4F81
:100A20004C30510569F781110FC01092800082E0AF
:100A3000809381001092850010928400B19A809179
:100A40006F00826080936F00E091F001F0E0CF01D1
:100A5000880F991FE80FF91FE553FE4F80818064CE
:100A60008083E0913E01F0913F0182E08083E0913C
:100A70003A01F0913B011082E0913C01F0913D017F
:100A80008FEC808310924601E0914201F091430186
:100A900086E08083E0914001F09141018081806196
:100AA0008083E0914001F0914101808188608083E2
:100AB000E0914001F0914101808180688083E09164
:100AC0004001F091410180818F7D80834EE050E0B4
:100AD00062E171E08EE291E00E940B0142E050E0A1
:100AE00061E271E08EE291E00E940B0180E090E013
:100AF0000E9487000E9486028AE590E00E9487009B
:100B00000E94860284EB90E00E9487000E94860289
:100B10000E940B02EBCF052E97FB1EF400940E945F
:100B2000A20557FD07D00E94BD0507FC03D04EF477
:100B30000C94A20550954095309521953F4F4F4F0D
:100B40005F4F089590958095709561957F4F8F4F79
:100B50009F4F08950E94DF05A59F900DB49F900DB3
:100B6000A49F800D911D11240895B7FF0C94AA0530
:100B70000E94AA05821B930B0895A1E21A2EAA1BBC
:100B8000BB1BFD010DC0AA1FBB1FEE1FFF1FA2173D
:100B9000B307E407F50720F0A21BB30BE40BF50B3A
:100BA000661F771F881F991F1A9469F760957095C3
:100BB000809590959B01AC01BD01CF010895A29F46
:100BC000B001B39FC001A39F700D811D1124911D21
:100BD000B29F700D811D1124911D0895991B79E01C
:100BE00004C0991F961708F0961B881F7A95C9F7BD
:100BF00080950895EE0FFF1F0590F491E02D099464
:0E0C000081E090E0F8940C940506F894FFCF84
:100C0E0000000000A2010B013A01E9016B0149014C
:100C1E005D01414E4E4F554E434520736572766FC2
:040C2E00000D0A00AB
:107E0000112484B714BE81FFF0D085E080938100F7
:107E100082E08093C00088E18093C10086E0809377
:107E2000C20080E18093C4008EE0C9D0259A86E02C
:107E300020E33CEF91E0309385002093840096BBD3
:107E4000B09BFECF1D9AA8958150A9F7CC24DD24C4
:107E500088248394B5E0AB2EA1E19A2EF3E0BF2EE7
:107E6000A2D0813461F49FD0082FAFD0023811F036
:107E7000013811F484E001C083E08DD089C08234E0
:107E800011F484E103C0853419F485E0A6D080C0E4
:107E9000853579F488D0E82EFF2485D0082F10E0AE
:107EA000102F00270E291F29000F111F8ED06801E7
:107EB0006FC0863521F484E090D080E0DECF843638
:107EC00009F040C070D06FD0082F6DD080E0C81688
:107ED00080E7D80618F4F601B7BEE895C0E0D1E017
:107EE00062D089930C17E1F7F0E0CF16F0E7DF06D8
:107EF00018F0F601B7BEE89568D007B600FCFDCFD4
:107F0000A601A0E0B1E02C9130E011968C91119780
:107F100090E0982F8827822B932B1296FA010C0160
:107F200087BEE89511244E5F5F4FF1E0A038BF0790
:107F300051F7F601A7BEE89507B600FCFDCF97BE46
:107F4000E89526C08437B1F42ED02DD0F82E2BD052
:107F50003CD0F601EF2C8F010F5F1F4F84911BD097
:107F6000EA94F801C1F70894C11CD11CFA94CF0C13
:107F7000D11C0EC0853739F428D08EE10CD085E9AC
:107F80000AD08FE07ACF813511F488E018D01DD067
:107F900080E101D065CF982F8091C00085FFFCCF94
:107FA0009093C60008958091C00087FFFCCF809118
:107FB000C00084FD01C0A8958091C6000895E0E648
:107FC000F0E098E1908380830895EDDF803219F02E
:107FD00088E0F5DFFFCF84E1DECF1F93182FE3DFCA
:107FE0001150E9F7F2DF1F91089580E0E8DFEE27F6
:047FF000FF270994CA
:027FFE00040479
:0400000300007E007B
:00000001FF
