:100000000C9435000C945D000C945D000C945D0024
:100010000C945D000C945D000C945D000C945D00EC
:100020000C945D000C945D000C945D000C945D00DC
:100030000C945D000C945D000C945D000C945D00CC
:100040000C94D8010C945D000C9448020C9422028C
:100050000C945D000C945D000C945D000C945D00AC
:100060000C945D000C945D00710311241FBECFEF52
:10007000D8E0DEBFCDBF21E0AAE2B1E001C01D9211
:10008000A43DB207E1F711E0A0E0B1E0E2EDFBE052
:1000900002C005900D92AA32B107D9F710E0C5E36E
:1000A000D0E004C02197FE010E94D503C433D107DC
:1000B000C9F70E947A020C94E7050C9400002FB750
:1000C000F89480912F0190913001A0913101B0916D
:1000D00032012FBF80933B0190933C01A0933D01DF
:1000E000B0933E01E0913301F09134010284F38535
:1000F000E02D83E391E0099597FF26C02FB7F89490
:1001000080912F0190913001A0913101B091320185
:100110002FBF40913B0150913C0160913D01709196
:100120003E01841B950BA60BB70B409137015091F4
:1001300038016091390170913A0184179507A6073B
:10014000B70780F28FEF9FEF0895CF92DF92EF9283
:10015000FF920F931F93CF93DF936C017A018B0172
:10016000C0E0D0E0CE15DF0589F0D8016D918D019A
:10017000D601ED91FC910190F081E02DC601099529
:10018000892B11F47E0102C02196ECCFC701DF91CB
:10019000CF911F910F91FF90EF90DF90CF90089536
:1001A000089580E090E00895FC01538D448D252F43
:1001B00030E0842F90E0821B930B541710F0CF9601
:1001C000089501970895FC01918D828D981761F033
:1001D000828DDF01A80FB11D5D968C91928D9F5F7E
:1001E0009F73928F90E008958FEF9FEF0895FC0129
:1001F000918D828D981731F0828DE80FF11D858DDC
:1002000090E008958FEF9FEF0895FC01918D228D6E
:10021000892F90E0805C9F4F821B91098F739927F3
:10022000089583E391E00E94050121E0892B09F400
:1002300020E0822F0895FC01848DDF01A80FB11DFD
:10024000A35ABF4F2C91848D90E001968F7399270C
:10025000848FA689B7892C93A089B1898C918064F9
:100260008C93938D848D981306C00288F389E02DBA
:1002700080818F7D80830895EF92FF920F931F936B
:10028000CF93DF93EC0181E0888F9B8D8C8D981349
:1002900005C0E889F989808185FD24C0F62E0B8D83
:1002A00010E00F5F1F4F0F731127E02E8C8DE812A7
:1002B0000CC00FB607FCFACFE889F989808185FF69
:1002C000F5CFCE010E941B01F1CF8B8DFE01E80F0F
:1002D000F11DE35AFF4FF0820B8FEA89FB89808181
:1002E000806207C0EE89FF896083E889F98980818F
:1002F0008064808381E090E0DF91CF911F910F9126
:10030000FF90EF900895CF93DF93EC01888D8823C1
:10031000C9F0EA89FB89808185FD05C0A889B98972
:100320008C9186FD0FC00FB607FCF5CF808185FF4D
:10033000F2CFA889B9898C9185FFEDCFCE010E94BB
:100340001B01E7CFDF91CF91089580E090E0892BEA
:1003500029F00E94110181110C94000008950E945F
:10036000D2050F931F93CF93DF93EC01888199817E
:10037000009729F02A813B812617370788F48B01E3
:100380006F5F7F4F0E940805009761F09983888313
:100390001B830A832C813D81232B11F4FC011082E5
:1003A00081E001C080E0DF91CF911F910F9108950E
:1003B0001F920F920FB60F9211242F933F938F939A
:1003C0009F93AF93BF9380912F0190913001A091A3
:1003D0003101B091320130912E0123E0230F2D37EE
:1003E00020F40196A11DB11D05C026E8230F029639
:1003F000A11DB11D20932E0180932F0190933001F8
:10040000A0933101B093320180912A0190912B0188
:10041000A0912C01B0912D010196A11DB11D8093D9
:100420002A0190932B01A0932C01B0932D01BF9131
:10043000AF919F918F913F912F910F900FBE0F9091
:100440001F9018951F920F920FB60F9211242F93A1
:100450003F934F935F936F937F938F939F93AF934C
:10046000BF93EF93FF9383E391E00E941B01FF9101
:10047000EF91BF91AF919F918F917F916F915F911C
:100480004F913F912F910F900FBE0F901F90189595
:100490001F920F920FB60F9211242F938F939F9359
:1004A000EF93FF93E0914301F09144018081E0914B
:1004B0004901F0914A0182FD12C0908180914C0166
:1004C0008F5F8F7320914D01821751F0E0914C01A5
:1004D000F0E0ED5CFE4F958F80934C0101C0808170
:1004E000FF91EF919F918F912F910F900FBE0F90E1
:1004F0001F901895CF93DF93CDB7DEB728970FB62F
:10050000F894DEBF0FBECDBF789484B5826084BD01
:1005100084B5816084BD85B5826085BD85B5816007
:1005200085BD80916E00816080936E001092810085
:100530008091810082608093810080918100816040
:100540008093810080918000816080938000809101
:10055000B10084608093B1008091B000816080938D
:10056000B00080917A00846080937A0080917A0054
:10057000826080937A0080917A00816080937A0013
:1005800080917A00806880937A001092C100E09197
:100590004301F091440182E08083E0913F01F091BA
:1005A00040011082E0914101F09142018FEC808383
:1005B00010924B01E0914701F091480186E0808361
:1005C000E0914501F0914601808180618083E09156
:1005D0004501F0914601808188608083E09145016A
:1005E000F0914601808180688083E0914501F0911F
:1005F000460180818F7D80834DE050E068E171E0AD
:1006000083E391E00E94A50042E050E066E271E0E1
:1006100083E391E00E94A50087E291E0E82E880F35
:10062000FF081A8219821C821B821E821D8260E0D2
:1006300070E0CE0101960E94B10129813A818111B9
:100640000DC02115310519F0C9010E9470041A82EC
:1006500019821E821D821C821B8225C01E821D8261
:1006600068E271E0C9010E94E0051DC08E159F057A
:10067000F1F08F8318860D811E810F5F1F4FB80127
:10068000CE0101960E94B101882369F029813A8147
:100690008D819E81BE01695F7F4F820F931F0E94F3
:1006A000E0051E830D830E945F0097FFDFCF4D8121
:1006B0005E814115510571F069817A8183E391E092
:1006C0000E94A50042E050E066E271E083E391E021
:1006D0000E94A50089819A810E9470040E94A50150
:1006E000A0CFE3E3F1E01382128288EE93E0A0E072
:1006F000B0E084839583A683B7838AE091E09183F9
:10070000808385EC90E09587848784EC90E09787E0
:10071000868780EC90E0918B808B81EC90E0938BCE
:10072000828B82EC90E0958B848B86EC90E0978BAB
:10073000868B118E128E138E148E08952F923F92F7
:100740004F925F926F927F928F929F92AF92BF92E1
:10075000CF92DF92EF92FF920F931F93CF93DF938D
:10076000CDB7DEB7CA1BDB0B0FB6F894DEBF0FBEEA
:10077000CDBF09942A88398848885F846E847D8437
:100780008C849B84AA84B984C884DF80EE80FD8039
:100790000C811B81AA81B981CE0FD11D0FB6F894AF
:1007A000DEBF0FBECDBFED010895EE0FFF1F059018
:1007B000F491E02D0994CF93DF938230910510F4EA
:1007C00082E090E0E091D201F091D30120E030E0AE
:1007D000C0E0D0E0309711F14081518148175907AE
:1007E000C0F04817590761F482819381209719F06E
:1007F0009B838A832BC09093D3018093D20126C020
:100800002115310519F04217530718F49A01BE015A
:10081000DF01EF010280F381E02DDCCF21153105EE
:1008200009F1281B390B2430310590F412968D9173
:100830009C9113976115710521F0FB0193838283CD
:1008400004C09093D3018093D201FD01329644C03D
:10085000FD01E20FF31F81939193225031092D93F3
:100860003C933AC02091D0013091D101232B41F427
:1008700020910201309103013093D1012093D001E6
:1008800020910001309101012115310541F42DB76E
:100890003EB74091040150910501241B350BE091B6
:1008A000D001F091D101E217F307A0F42E1B3F0B0A
:1008B0002817390778F0AC014E5F5F4F24173507D2
:1008C00048F04E0F5F1F5093D1014093D0018193A8
:1008D000919302C0E0E0F0E0CF01DF91CF91089565
:1008E0000F931F93CF93DF93009709F48CC0FC0103
:1008F0003297138212820091D2011091D301011517
:10090000110581F420813181820F931F2091D00144
:100910003091D1012817390779F5F093D101E0938F
:10092000D00171C0D80140E050E0AE17BF0750F4CD
:1009300012962D913C911397AD012115310509F1C6
:10094000D901F3CF9D01DA01338322836081718164
:10095000860F971F8217930769F4EC01288139816C
:10096000260F371F2E5F3F4F318320838A819B8163
:1009700093838283452B29F4F093D301E093D20132
:1009800042C01396FC93EE931297ED014991599151
:100990009E01240F351FE217F30771F480819181C6
:1009A000840F951F029611969C938E93828193815A
:1009B00013969C938E931297E0E0F0E0D801129684
:1009C0008D919C911397009719F0F8018C01F6CF47
:1009D0008D919C9198012E5F3F4F820F931F209124
:1009E000D0013091D1012817390769F4309729F4E3
:1009F0001092D3011092D20102C01382128210937E
:100A0000D1010093D001DF91CF911F910F910895F3
:100A1000A0E0B0E0EEE0F5E00C94A203EC0100975A
:100A200021F4CB010E94DB03B8C0FC01E60FF71FE5
:100A30009C0122503109E217F30708F4ACC0D90138
:100A40000D911C91119706171707B0F0053011058D
:100A500008F49FC0C80104978617970708F499C047
:100A600002501109061B170B019311936D937C9390
:100A7000CF010E9470048DC05B01A01AB10A4C0125
:100A8000800E911EA091D201B091D30140E050E0C0
:100A9000E12CF12C109709F44AC0A815B905D1F53D
:100AA0006D907C901197630182E0C80ED11CCA142E
:100AB000DB0480F1A3014A195B096A0182E0C80ED8
:100AC000D11C1296BC9012971396AC91B5E0CB1640
:100AD000D10440F0B282A38351834083D9016D9346
:100AE0007C930AC00E5F1F4FC301800F911FF90155
:100AF00091838083EB2DFA2FE114F10431F0D701BB
:100B00001396FC93EE93129744C0F093D301E093B5
:100B1000D2013FC08D919C9111974817590708F455
:100B2000AC017D0112960D90BC91A02DB3CF8091A8
:100B3000D0019091D10188159905E1F44617570726
:100B4000C8F48091000190910101009741F48DB7A4
:100B50009EB74091040150910501841B950BE81745
:100B6000F907C8F4F093D101E093D001F901718342
:100B700060830FC0CB010E94DB037C01009759F01A
:100B8000A801BE010E94D705CE010E947004C701D2
:100B900004C0CE0102C080E090E0CDB7DEB7EEE049
:100BA0000C94BE0381E090E0F8940C94E705FB01FF
:100BB000DC0102C001900D9241505040D8F70895D9
:100BC000FB01DC0101900D920020E1F70895F894FB
:020BD000FFCF55
:100BD2000000D4018000000000003C01A500D40008
:100BE20083010501E300F700414E4E4F554E434548
:0A0BF200206563686F000D0A000023
:00000001FF
